:020000041000EA
:10000000002008205B0100101B0100101D010010E2
:100010001101001011010010110100101101001058
:100020001901001019010010190100101F01001022
:10003000110100101901001021010010230100100E
:100040001101001011010010110100101101001028
:100050001101001011010010110100101101001018
:100060001101001011010010110100101101001008
:1000700011010010110100101101001011010010F8
:1000800011010010110100101101001011010010E8
:1000900011010010110100101101001011010010D8
:1000A00011010010110100101101001011010010C8
:1000B00011010010110100101101001011010010B8
:1000C00011010010110100101101001011010010A8
:1000D0001101001011010010110100101101001098
:1000E0001101001011010010110100101101001088
:1000F0001101001011010010110100101101001078
:100100001101001011010010110100101101001067
:10011000EFF30580103800BE00BE00BE00BE00BE7A
:1001200000BE00BEF2EB8871645B0010905B0010B3
:100130009C01001090A31AE7D3DEFFFF42012110BB
:10014000FF01000030650000793512AB00201E4928
:10015000086006C881F3088810474FF050400068D7
:1001600008B10020F3E70DA40ECC002902D000F066
:1001700012F8F9E71549164A002000E001C1914242
:10018000FCD114498847144988471449884700BE60
:10019000FDE701C901C29A42FBD37047905B001092
:1001A00010010020E80B0020686600100000082005
:1001B00000000820686600100010082000100820C9
:1001C000000000007047000008ED00E0E80B002090
:1001D000FCD10420DD490010F5090010D5490010BC
:1001E00040F6B7300A4B0B4A996A1368CB1A834220
:1001F0000DD94FF0504311605B68074A13F0080FA8
:10020000136802D0013313607047013B13607047DD
:1002100000000B40541000201C1000202DE9F84F66
:100220003E4B1F68002F76D13D4BD3F80080B8F1CC
:10023000000F1BD13B4E3C4CDFF8F090336811E0CF
:1002400000233A4D03EB430309EB830328469B68E5
:1002500098472368326801339342236005F10C0507
:10026000F0DB1346002B2760EADCFEE7B8F1010F54
:1002700001D0BDE8F88F2C4C2A4EDFF8B090DFF8A3
:10028000BC802B4DDFF8B8A0D8F8003032680133BD
:10029000002AC8F80030276000DCFEE7DFF88CB0E9
:1002A0002F6002F02FF82368CAE9000103EB430333
:1002B00009EB83039B68584698472A682368012AFC
:1002C00007D032680133934223600BF10C0BDBDA69
:1002D000E6E7184951F82320013241F8232002F0C3
:1002E00011F88E46D4F800B0134BDAF8041053F826
:1002F0003B2003EBCB0CDAF80030D31ADCF80420F7
:1003000062EB01021B180C4842EB0E0240F83B3036
:10031000CCF80420B8E747F00107384784100020E4
:100320008C100020901000204C100020981000200D
:100330007C10002098110020A00D002090110020BA
:10034000400E00202DE9F84F3E4B1F68002F76D15C
:100350003D4BD3F80080B8F1000F1BD13B4E3C4C15
:10036000DFF8F090336811E000233A4D03EB4303CC
:1003700009EB830328469B6898472368326801335A
:100380009342236005F10C05F0DB1346002B276038
:10039000EADCFEE7B8F1010F01D0BDE8F88F2C4C84
:1003A0002A4EDFF8B090DFF8BC802B4DDFF8B8A004
:1003B000D8F8003032680133002AC8F800302760CE
:1003C00000DCFEE7DFF88CB02F6001F09BFF2368B4
:1003D000CAE9000103EB430309EB83039B6858461A
:1003E00098472A682368012A07D03268013393426C
:1003F00023600BF10C0BDBDAE6E7184951F82320F8
:10040000013241F8232001F07DFF8E46D4F800B080
:10041000134BDAF8041053F83B2003EBCB0CDAF85B
:100420000030D31ADCF8042062EB01021B180C48E0
:1004300042EB0E0240F83B30CCF80420B8E747F01E
:1004400001073847881000208C10002094100020ED
:10045000501000201011002080100020C01100203A
:10046000F00D002094110020480E0020F8B502275E
:10047000394C2DED068B2046384904F083FE384B6D
:1004800062685F602368374E374D83F00F033A4050
:1004900003F0CF03336001216A60052000F094FF70
:1004A0000121062000F090FF304F0121072000F0CD
:1004B0008BFF4FF460533D4601249FED2DAADFEDE5
:1004C0002D9AB7EE009ADFED2C8A40F6FF763B803E
:1004D00007EE904AB8EEE78A28EE0A8A68EE297A93
:1004E00017EE900A02F0DCFD39EE488A07EE900A1A
:1004F00028EE288A28EE278ABDEEC88A18EE103A20
:1005000003F50063B342A8BF3346013423EAE37323
:1005100043F44053B4F5006F25F8023FD8D10120D1
:1005200004F01EFEBDEC068B4FF0A043134A144EA0
:10053000144D02EA403230601349C3F8405442F48B
:10054000EC02830103F1A04342F015021F605960E1
:100550009C601A61F8BD00BF00000840002D310109
:10056000003008400010084000200840E81100203A
:100570000000003AD631E2420000E144FFFF01FCF6
:10058000BC0F0020FFFF17000800084030B57F4C6B
:100590002DED028BD4ED007AF8EEE77A87B017EEF6
:1005A000900A04F089FF00224FF07C5302F082FB96
:1005B0000022774B02F06AFB02F0EEFB07EE900A96
:1005C000B2EE0E7AF0EEE76AF4EEC76AF1EE10FAD8
:1005D00080F2D2806F4D8DED017AD5ED006AF8EE94
:1005E000E66A16EE900ACDED027A04F065FF00226D
:1005F0004FF07C5302F05EFB0022674B02F046FB9B
:1006000002F0CAFB06EE900A9DED017AB0EEE66AB2
:10061000B4EEC76AF1EE10FA80F2AE8026EEA66A5A
:10062000DDED027AA7EEA76AB1EEC65AB4EEC75A5C
:10063000F1EE10FA80F2A080DFED585A584BF4EE3C
:10064000C55A1B68F1EE10FA07EE103A554B9FEDB4
:10065000564A1B68B8EEC77A06EE103A75FE855A00
:1006600027EE047A86EEA58AB8EEC66AC7EEA56ABA
:1006700026EE046A68EE077AF3EE004A9FED4B3AE5
:10068000E6EE867AF8EE003AA6EEA43A67EEA37A92
:1006900013EE100A8DED057A8DED036ACDED026A39
:1006A000CDED017ACDED044A04F006FF0022404B67
:1006B00002F000FB02F0A2FBDDED044ADFED3D5A43
:1006C000E8EE245A206015EE900A04F0F5FE0022B0
:1006D000374B02F0EFFA02F091FBDDED017AF5EE17
:1006E000C07AF1EE10FADDED026A9DED036A9DED30
:1006F000057A286047DDA6EEA76AF6EE086AA8EE3E
:10070000277A66EE267A17EE900A8DED027ACDED05
:10071000016A04F0D1FE0022254B02F0CBFA02F070
:100720006DFBDDED016A9DED027A034667EE267AE8
:100730001C4A17EE900A136004F0BEFE00221C4B08
:1007400002F0B8FA02F05AFB1B4B15491A78086000
:1007500062B91A4A1268920102F1A0421169490174
:1007600004D44FF4006116481060D16101221A7060
:1007700007B0BDEC028B30BD00220F4B1A7007B0E2
:10078000BDEC028B30BD0C4BF0E700BFC80F002062
:1007900000007440CC0F002000406F406F12833A7D
:1007A000C40F0020C00F0020000000380000A0434C
:1007B0000000E04000007A43F8D10420BC0F002084
:1007C000E81100202D4A2E4811680368B1F5F02F7A
:1007D00010B54FEAE3330EDA4FF4F02EDFF8C0C065
:1007E000C2F800E0DCF800104942CCF80010B3F584
:1007F000F17F13DC10BD4FEAE13C40F271218C45E2
:10080000F5DDDFF89CC01F49B3F5F17F1160DCF81E
:100810000010C1F10001CCF80010EBDD4FF47023A3
:100820004FF420010360116004F032FD6521164A87
:10083000DFED166A82FB0032C317C3EB221301FB04
:10084000130307EE903AF8EEE77A9FED117A77EE10
:10085000E67AC7EE877A17EE900A04F02DFE0022A2
:100860000C4B02F027FA02F0C9FA00230A490B4A9E
:100870000B4C0B602060137010BD00BFC80F002030
:10088000CC0F002000803801CBF08D2800004842BA
:100890000000C8420000E040C40F0020F8D104204E
:1008A000C00F0020F0B50568044683B0002D4BD082
:1008B0000123414D256013B9012003B0F0BD00F0C4
:1008C00093FC0028F8D04FF050431B68012B6FD0E9
:1008D00001223A4B1A600021084600F075FC384EA0
:1008E000384A33681268384838491344336002681C
:1008F0000B6807461A4403F65C7302600B60FFF74F
:1009000045FEFFF75FFF0823FA211A464FF4A07057
:1009100000F008FB396830680F23072241F3CF311C
:1009200040F3CF3000F0FEFA294B2A491A682A48D2
:1009300004F01CF81421002007230090264A0846E2
:1009400000F042FB0023B5E74FF420024FF4702083
:100950001B4B1D491A60086004F09AFC65211F4A70
:10096000DFED1F6A82FB0032C317C3EB221301FBCA
:10097000130307EE903AF8EEE77A9FED1A7A77EED6
:10098000E67AC7EE877A17EE900A04F095FD00220A
:10099000154B02F08FF902F031FA144B0B4A1D701F
:1009A000084B156018600120034B236003B0F0BDB5
:1009B0000F4A13608FE700BFB40800107C100020BE
:1009C000C80F0020C00F0020CC0F0020C40F002053
:1009D0001C1000200855001020100020CBF08D289E
:1009E000000048420000C8420000E040F8D1042066
:1009F0008010002010B584B0394803AB02AA01A9C9
:100A000001F07AFE18B93649364800F0A7FDDDE955
:100A10000212019801F0ACFD04F0E0F8022000F0B1
:100A200077FD02234FF0000242EC443001211846CA
:100A3000002200F0E7FC032000F06AFD03204FF0E5
:100A4000000343EC44000121002200F0DBFC012202
:100A500004210220244B00F0E7FC00F0E1F8FFF74E
:100A600005FD224B986A04F00BFC4FF050431B68C5
:100A7000012B1AD01E4A1368092B0EDC0C2003F13F
:100A8000010EC2F800E000FB03F200201949DFF874
:100A900078C088500A44C2E9013C0022164B1A6013
:100AA000FFF7BCFB002004B010BD144A1368092BEB
:100AB00005DD0022124B1A60FFF744FCF2E70C2020
:100AC00003F1010EC2F800E000FB03F200200D4923
:100AD000DFF834C088500A44C2E9013CE9E700BFAE
:100AE000F049020014550010E101001000000B4015
:100AF00090100020981000208410002094100020F6
:100B00008810002010110020A508001030B540F218
:100B10007F2E8418AEEB000CB4F5207FC8BF624670
:100B2000002A50DD012A5ED0C50722D584B2744563
:100B30001DD88CB2B4F5F07F19D24FF420740FFA9F
:100B400080FE11FB04E4DFF8D4C06410DCF8005030
:100B50001EF0010F15F804C015BF0CF00F0C2CF09F
:100B60000F0C4CEA031C43EA0C0C05F804C00130DE
:100B7000013AD40728D500EB020E0EF1FF3E1FFA12
:100B80008EFEBEF5207F1BD28CB2B4F5F07F17D25B
:100B90004FF4207411FB04E4DFF880C06410DCF82B
:100BA00000501EF0010F15F804C015BF0CF00F0C1B
:100BB0002CF00F0C4CEA031C43EA0C0C05F804C0A3
:100BC000013A521001D130BD5210144C01EB810C8E
:100BD0002468401000EB8C10204443EA0311BDE868
:100BE000304004F073BB82B27245ECD88AB2B2F5E1
:100BF000F07FE8D24FF4207200B211FB0202074CE2
:100C000052102468C007A15C4BBF01F00F0121F016
:100C10000F0141EA03111943A15430BD1410002003
:100C20002DE9F04F2DED028BA9498DB0A94804F0B4
:100C30008DF9A9498246A74804F088F9A749814659
:100C4000A44804F083F99FED9E8B07460021A1483C
:100C500004F058F901219F4804F054F900264FF49C
:100C6000402802219B4804F04DF98DED048B0AF1D8
:100C700008040AF1010324030DF1200E04AD0796C8
:100C8000CDF8188044EAC3144FF4C02B95E80F0048
:100C90008EE80F00099401249EE80F00DFF874C26B
:100CA00085E80F0006211020CDF81CC0CDF810B04B
:100CB00000F08AFB3146102223468648009404F057
:100CC000B7F92B4652463146824804F0F5F909F14E
:100CD0000D0309EB04021B0343EAC21323F0C043D4
:100CE00043F0804309937E4B06211120CDF820B0BC
:100CF000CDF828800B9300F067FB11222346214694
:100D00007448009404F094F94A46214608AB7148AF
:100D100004F0D2F98DED048BCDE906860FF2A81907
:100D2000D9E9008907F108060DF1200CBB1C360338
:100D300046EAC31695E80F008CE80F0009969CE878
:100D40000F0085E80F0006211220CDE9068900F08A
:100D50003BFB0621132000F037FB0621142000F096
:100D600033FB0621152000F02FFB04231222022161
:100D70005848009404F05CF92B463A460221554845
:100D800004F09AF9574A584B12681B68DFF88881BB
:100D9000564FC8E90132C8F80C30554B5549DFF8B9
:100DA0007CA1554E3B60BB60544B2046C1F800A06F
:100DB000C8F800201C60C6E90044C6E90244C7F830
:100DC00004A0C7F80CA004F0CBF98146204604F03B
:100DD000C7F98346204604F0C3F90546204604F0CF
:100DE000BFF9474ADFF838C102EA493242EA4B32DA
:100DF00044490CEA4B3E42F480224EEA453E42F022
:100E0000110203924FEA8B124EEA010B0CEA453EA7
:100E10004EEA403E0CEA403C800100F1A0404CEA22
:100E2000493C02904EEA010E37484CEA010C4FEA69
:100E3000891101F1A041C1F800A048604FF41630BB
:100E40008860039802F1A0420861AD01C2F80080F9
:100E50005160284905F1A0459460C2F810B02F6098
:100E60002A4A696002991B4BAC60C5F810E00E601D
:100E70004A608C60C1F810C05A68D103FCD440F2BB
:100E80008F2214491A614B689A03FCD440F2DF1395
:100E9000104A4B6153685B03FCD440F23F140123BA
:100EA000946140F207704FF0A042194903FA09F328
:100EB0000860C2F850340DB0BDEC028BBDE8F08F75
:100EC0000000010000F0010000000C405202401040
:100ED000705A0010000020504C5A0010305A001078
:100EE000204600445409002050090020F00B002047
:100EF000F479022014100020100C0020D00F0020E4
:100F0000FF1F00FC19047E0018002050E82100207B
:100F10000020205000020004000C0020F4210020DA
:100F2000FF1F7EFC91424EDB2DE9F04F5418B4F5C3
:100F3000F07F83B03DDA002A3BDB994680460D46C0
:100F400000240E4602FB022702F1010A14FB04F3FF
:100F5000FB1AB3F1804F4FF0804203D292089342C4
:100F6000FCD36AB30020811899424FEA50009CBF1D
:100F700080185B1A9208F6D14FEA400BA8EB0000EC
:100F8000B0F5207F0EDAB6F5F07F15DA4B465A46FB
:100F900031460190FFF7BAFD01985A464B46294663
:100FA000FFF7B4FD0134544505F1FF3506F10106A4
:100FB000CCD103B0BDE8F08FB5F5F07FF2DAECE705
:100FC00093461046DAE770472DE9F04F002883B0CA
:100FD0009DF83050C0F2EF808CB2B4F5EB7F94BF37
:100FE00000240124002C40F0E6802646A4464FEA67
:100FF00005185FFA88F84FEA031E5FFA8EFE65F364
:10100000070668F3070C6E4F65F30F266EF30F2C7F
:1010100068F3174C63F31746D7F800906EF31F6C14
:1010200063F31F66177846EA0C060196002F00F05E
:10103000C2804FF4207311FB030109EB61031546D5
:1010400040F279294FF0070E4FF0010B4FF0020AE2
:101050005C4A0333A6E0C7EBC701515C0DF10808F9
:10106000C1F301166E44367917FB0EBC03F8026C0F
:10107000C1F3810608EB911111F8041C6E4403F8CA
:10108000031C3179033303F8041C12F80C1017FB0E
:101090000EACC1F301166E443679013483F83B611E
:1010A000C1F3810608EB911111F8041C6E4483F81A
:1010B0003A113179032683F83C1112F80C1017FB12
:1010C0000E6CC1F301166E44367900B283F87B6270
:1010D000C1F3810608EB911111F8041C6E4483F8EA
:1010E0007A123179042683F87C1212F80C1017FB5F
:1010F0000E6CC1F301166E44367983F8BB63C1F3FD
:10110000810608EB911111F8041C6E4483F8BA13A0
:101110003179052683F8BC1312F80C104FF0060C39
:1011200017FB0E6617FB0EC7C1F3011C08EB9118E5
:10113000EC449CF804C018F8048CC1F381016944A4
:1011400083F8FA8483F8FBC409790DF1080C83F85D
:10115000FC14915DC1F301166E44367983F83B6649
:10116000C1F381060CEB911111F8041C6E4483F855
:101170003A16317983F83C16D15DC1F301166E44FD
:10118000367983F87B67C1F381060CEB911111F876
:10119000041C6E4483F87A17317983F87C1715F8AC
:1011A000017F27B1484500F106007FF754AF204684
:1011B00003B0BDE8F08F0024204603B0BDE8F08FF7
:1011C00014100020B0560010064B00EB80001B6886
:1011D0008201C2F5163241EA011103EB801004F0DE
:1011E00075B800BF14100020034B186801280ABF0F
:1011F000002200201A607047E82100204FF0504183
:101200002DE9F84F6C4AD1F800A06C4B52F82A70C7
:101210000AEBCA0203EBC20847B30026DFF8A0B10D
:10122000DFF8A091F3080C3358F823503446083601
:10123000C5B105F00F012D0989B15BF82A2004F032
:101240000703E240E0089B00D20701FA03F300F134
:101250008C0C03D4204649F82C30B84715B1013422
:10126000B442E6D3202EDDD1BDE8F88F544DFC0802
:1012700004F10C0358F8233007F10800002B7CD050
:1012800013F00F064FEA13120AD055F82A10F9404E
:10129000C90703D44B498C3441F82460002A6CD030
:1012A00012F00F024FEA13210DD055F82A407E1C90
:1012B000F440E40705D4F408424E12018C3446F899
:1012C0002420002959D011F00F014FEA133407D020
:1012D00055F82A20BE1CF240D20758D5002C4CD01D
:1012E00014F00F044FEA134107D055F82A20FE1CD2
:1012F000F240D20752D500293FD011F00F014FEA3A
:10130000135207D02E4C54F82A603C1DE640F607D5
:101310004BD592B312F00F024FEA13610DD0284C57
:1013200054F82A607C1DE640F60705D4254EE408F3
:1013300012058C3446F82420F9B111F00F014FEA60
:1013400013731FD01E4CBE1D54F82A20F240D20742
:1013500005D4F2081B4E09068C3246F822100737D6
:101360005BB154F82A20FA40D10706D41549FF088A
:101370001B0707F18C0241F8223020283FF474AF9C
:10138000074674E7002BF8D00D4C0737E9E7F20861
:101390000C4E09028C3246F822109FE7F208094EE3
:1013A00024038C3246F82240A5E7064EE4080904DF
:1013B0008C3446F82410ACE7D40F00204882024059
:1013C00088110020008002404FF4807C0C4B00B557
:1013D00053F8202003EB8003C00082F0400200F1AC
:1013E000804003F5805E02F0C00200F5203003F576
:1013F0004053CEF800204160C3F800C000BD00BFDC
:1014000004800340DFF81CC0C90041EA82015CF897
:1014100020200CEB8003514003F5805301F00C01B8
:1014200019607047048003402DE9F0434FF05047A6
:1014300000F0070C1E464FEA8C0CC3083D6883B0D1
:1014400001FA0CF44FEA8308C2B903F18C012B486E
:101450002B4B05EBC50508EBC50840F8214043F8C8
:1014600008403C68DFF8A49059F824300BB3002EF4
:1014700035D049F8246003B0BDE8F083DFF88C90E4
:1014800059F8252002B37EB32A4649F825601B4946
:101490008C3341F82340152001211A4D02EBC20282
:1014A00008EBC20255192C6003B0BDE8F04300F010
:1014B00037B9002EDFD01520134949F8246003B056
:1014C000BDE8F04300F074B9B6B115200E490193A0
:1014D00049F8256000F06CF93A68019BD7E71520C0
:1014E000094900F047FAC4E715200749019300F0C5
:1014F00041FA3A68019BC8E72A46C8E700800240E3
:1015000048B2024048A20240FD110010D40F002052
:101510004FF0000300B543EC440043EC40004FF0B3
:10152000050E4FF4807C0C4BC20053F8201003EBE7
:10153000800081F0400102F1804303F5203301F087
:10154000C00200F5805100F540500A60C3F804E085
:10155000C0F800C000BD00BF048003400FB400B558
:10156000084883B003F082FB049B3BB105A91846F1
:10157000019103F013FA044803F078FB012003F013
:1015800025FA00BF48550010D4550010EFF3108025
:1015900072B6064BD3E8CF1F01220029FAD1C3E867
:1015A000412F0029F6D1BFF35F8F70479B0F0020BA
:1015B0000023034AC2E88F3F80F31088704700BFC2
:1015C0009B0F002070B51646EFF3108472B6DFF85B
:1015D00048E0DEE8CF2F0123002AFAD1CEE8423FCF
:1015E000002AF6D1BFF35F8F012301F0070CCA0870
:1015F00003FA0CF310F802C01CEA030508D14CEA08
:10160000030C00F802C0CEE88F5F84F3108870BD31
:101610003046FFF7A3FF00BF9B0F0020F8B50F4631
:101620001946EFF3108672B61C4DD5E8CF4F012353
:10163000002CFAD1C5E8443F002CF6D1BFF35F8FF0
:101640008A421BD8012402E00132914222D3D308FE
:1016500010F803E002F0070C04FA0CFC1EEA0C0F71
:10166000F2D14EEA0C0E00F803E010460023C5E864
:101670008F3F86F31088984207DBF8BD0023C5E84A
:101680008F3F86F310884FF0FF30002FF5D006987B
:10169000FFF764FF4FF0FF30E8E700BF9B0F00202B
:1016A000044A1078431CDBB2182B28BF1023137098
:1016B000704700BF580900204FF0E022936843F0C4
:1016C00000539360704700BF0021044B03F12002D8
:1016D000C3E88F1F01339342FAD17047900F002067
:1016E0004FF0E0234FF08032C3F80024C3F8042405
:1016F000C3F80824C3F80C24C3F81024C3F8142436
:10170000C3F81824C3F81C24C3F82024C3F82424E5
:10171000C3F82824C3F82C24C3F8302462B67047D9
:10172000012300F01F029340400941B1800000F105
:10173000604000F56140C0F8803103607047024AA4
:10174000203042F82030704700E100E008B5EFF3A8
:10175000108E72B6134BD3E8CFCF0122BCF1000F2D
:10176000F9D1C3E84C2FBCF1000FF4D1BFF35F8F68
:101770000D4A10309268DFF834C052F820206245DC
:1017800001D091420BD1084A926842F82010BFF371
:101790005F8F0022C3E88F2F8EF3108808BD01F001
:1017A0002FF900BF990F002000ED00E0110100109B
:1017B0002DE9F84F8B461146EFF3108872B6664F4D
:1017C000D7E8CF2F0123002AFAD1C7E8423F002AE9
:1017D000F6D1BFF35F8F614B93F90040002CC0F24C
:1017E000B88000F110055E4804EB440900EB890263
:1017F00096794FEA89091E705A4B9B6853F8256009
:10180000331A2F2B35D826F0010E9EF807308B4265
:1018100009D86FE00CEB4C0300EB830393F807A0AF
:101820008A4551D99E469EF906C0BCF1000FF1DAF7
:101830004BF601590EF1040A131FA3EB0A03C3F37D
:101840004A036FEAC3436FEAD3438EF80640DFF8DA
:1018500020A104EB440400EB8402AEF8043040F80D
:1018600024A0A2F8049082F806C0D171C2F808B092
:101870001DE03D4B9E426CD13C4BD17109F1020100
:101880000144043B5B1AC3F34A036FEAC3434FF4BA
:1018900021416FEAD34320F809105380FF214BF612
:1018A0000153C2F808B09171938042F001062D4BAC
:1018B0009B6843F82560BFF35F8F0023C7E88F3F25
:1018C00088F31088BDE8F88FF2466FF00703A3EBAA
:1018D00009033AF8049F1B1A49F30A0909F102099E
:1018E0000AEB49099944C9F34A096FEAC9496FEA01
:1018F000D949A1E76FF00703D1711C4909F102042E
:1019000004440439091BA3EB0903C1F34A011B1A60
:101910006FEAC1417344C3F34A036FEAC3436FEAFA
:10192000D1414FF421466FEAD3435180104920F84A
:10193000096093804AF6AA2473461B1A5B415C43F4
:10194000240DC2F808B0947142F00106CEF80010E0
:10195000ADE701F055F800BF990F0020F6D1042043
:101960005C09002000ED00E0110100108C0900204E
:10197000014880472DE9F04782B0EFF3108572B639
:10198000DFF8A8C1DCE8CF2F0123002AFAD1CCE888
:10199000423F002AF6D1BFF35F8F5E4B00F1100487
:1019A0009B6853F824205C4B9A423DD08A4249D030
:1019B000DFF87CE1A2EB0E032F2B35D8012743097A
:1019C0009B0000F01F0003F1604303F56143874073
:1019D0001E689A46B946C3F88070BFF35F8FEFF375
:1019E0000583DBB21F467BBB0123834022F001004D
:1019F00003EA06088668B14208D181E003EB43039D
:101A00000EEB83039E68B14225D0184690F906304C
:101A1000002BF3DAB1424ED05346B8F1000F17D085
:101A2000C3F88091C3F800903A4B9B6843F8242098
:101A3000BFF35F8F0023CCE88F3F85F3108802B09F
:101A4000BDE8F0871A46EFE79C42CDD000F0D8FF02
:101A5000C3F88090E8E793F90660002E2CDB06EBD4
:101A600046000EEB800180000190C8798F68D87124
:101A700091F906009F60002898714FEA46072EDB17
:101A80008988019841F30A0100EB41016FF00700DA
:101A900008317144C01A0144C1F34A016FEAC141DF
:101AA0006FEAD14199801D49BB1908780EEB830379
:101AB0000E709871B0E703469FB9FF2181714BF614
:101AC00001518180154E184637784AF6AA219F7138
:101AD0007346C01A40414143090D31709CE71049DB
:101AE000E0E71049104EC91A0839C1F30A306FEA0D
:101AF00000506FEA105046EA5101D98098808BE778
:101B000090F906600346002EA9DA002FE9D1024AB7
:101B1000D8E700BF00ED00E011010010F6D104206D
:101B200001BDFFFF9609002000F8FFFF990F00207C
:101B30005C0900202DE9F041EFF30583DBB29E46FE
:101B4000EFF3108572B62949D1E8CF2F0123002A7F
:101B5000FAD1C1E8423F002AF6D1BFF35F8FDFF828
:101B60009C8040F00106D8F808704AF6AA2357F87E
:101B70002E7004461E4AA41A644163431B0DB742EB
:101B80005BB21ED092F906409C4220D092F91240DE
:101B90009C4227D092F91E409C4225D092F92A40BF
:101BA0009C4208BF032413D0124A002492F800C0BC
:101BB000137080F806C0C1E88F4F85F31088BDE828
:101BC000F081D8F808200C4C42F82E40ECE70024B5
:101BD00004EB440402EB8402FF2494714BF601549D
:101BE0009480E1E70124F3E70224F1E7990F002054
:101BF0005C090020F6D104201101001000ED00E086
:101C0000014B0B4403607047900F002070B5104CDF
:101C1000104DAC420ED2FF26236863B1FFF740FDA2
:101C200001462046FFF7ECFFA680BFF35F8F083424
:101C3000AC42F1D370BDFFF733FD01462046FFF7FC
:101C4000DFFF2671BFF35F8F0834AC42E4D370BD71
:101C5000D80B0020E80B002040BF00200021704777
:101C60002DE9F04F85B0EFF30583DBB2103B9A0806
:101C70001ABF012299499A4903F0030A00910121F0
:101C8000984B0AEB820253F82240009B01FA0AF2B9
:101C900003F5415304F1080B01925A60B4F908604E
:101CA000DDE90003002EC36372DAA3881B0400F190
:101CB0001B812369EFF3108272B6D3E8CF0F0121A5
:101CC0000028FAD1C3E8401F0028F6D1BFF35F8F88
:101CD0004FF6FF76A0880021236900B2A680C3E8F2
:101CE0008F1F82F31088884228DBA6460546676965
:101CF000BEF9083005EB4506002BDC4607EBC602B3
:101D000013DBD2E90240A94604E037F938309446A3
:101D1000002B09DB03EB430807EBC802D2E90251B1
:101D2000AC4270EB0101F0DA4D46ACF8005037F9E7
:101D3000365027F83630002DDADA7446B4F9083018
:101D4000002BC0F21B816269009D03EB430302EB91
:101D5000C30305EB8A00A96A9E680269A6EB010C21
:101D6000521A9445DF6805D301232A6A03FA0AF35D
:101D7000134200D10661A379002B49D1009800F0ED
:101D8000B9FAB042B94189DA40BF05B0BDE8F08F79
:101D9000D4F8149006EB460809EBC807BB68FD6849
:101DA000029300F0A7FA029B9842A9412BDBD7E9E6
:101DB0000431022B6BD07A88B4F9080092B242EA5F
:101DC0000040984702460B4652EA030165D0002BBB
:101DD00080F2AA800299B1EB020C65EB030E39F98F
:101DE0003830C7E902CE002B0DDB606903EB4302FC
:101DF00000EBC202D2E90271BC457EEB01054FEA5D
:101E0000430280F29D80A38818047FF552AF95E7C6
:101E10004FF0000884F80680B4F90830591CADD0A2
:101E2000DC46CDF808A002E05A1CAC462CD0626912
:101E300003EB430102EBC105B5F802E018461EF4BE
:101E4000004F32F93130EFD02569ACF80030EFF3B4
:101E5000108E72B6D5E8CFAF5FF00109BAF1000F6E
:101E6000F8D1C5E84A9FBAF1000FF3D1BFF35F8FF5
:101E7000B4F80290256922F831906080C5E88F8F10
:101E80008EF310885A1CD2D1DDF808A076E70846F8
:101E90000B6903919847002839D139F838302381EC
:101EA0002369EFF3108272B6D3E8CF0F0121002827
:101EB000FAD1C3E8401F0028F6D1BFF35F8F6388D3
:101EC000216929F8383000236680C1E88F3F82F30A
:101ED0001088A38818047FF5ECAE2FE700800B4034
:101EE00000000B405C1000200446204600F002FA7F
:101EF00000F1004204EB8A00A36A0169C91AD31AEF
:101F00008B4208D2026140BF05B0BDE8F08F039953
:101F1000D1E9002358E70123216A03FA0AF30B42AF
:101F20007FF432AF0261EEE70098CDE9022300F0C2
:101F3000E1F9029A039B10EB020C43EB010E4EE712
:101F4000254625F8083F06E003EB430200EBC202FA
:101F5000D2E902715A00BC457EEB01011A4405DB4F
:101F600030F9323000EBC205002BEDDA29F83830B9
:101F70002E80A38818047FF59CAEDFE6009CB4E7B2
:101F800038B5334B1C6904B138BD0321314800F02A
:101F90009FF9304D2E4BDD60FFF782FB2E4A4FF04C
:101FA000504E024403202A4B4FF00F0C18701A6158
:101FB000DEF800204FF6FF715A705A69A3F802C08C
:101FC00014834FF00204A2F848404FF00404A2F832
:101FD00078404FF00504A2F890404FF00604A2F8B4
:101FE000A8404FF00704A2F8C0404FF00904A2F83F
:101FF000F0404FF00A04A2F808414FF00B04A2F899
:1020000020414FF00C04A2F838414FF0010414862F
:102010004FF00804A2F8D840104C4FF00D0E4FF0CE
:102020000E0C9C6008249980A2F850E1A2F868C1C7
:10203000A2F8600011800A4A0A492C62D360FFF7B7
:1020400085FB01210320FFF76BFB074B1C6438BDA8
:10205000A409002000000B40900F0020FFFF10009B
:102060005C100020611C001000200B40F0B51646EB
:102070001F4602690346EFF3108072B6D2E8CF4FD5
:102080000121002CFAD1C2E8441F002CF6D1BFF385
:102090005F8FB3F902101D69002945DBD3F814E006
:1020A00001EB41023EF832400EEBC20C5C80002492
:1020B000C5E88F4F80F3108805983546CCF810009E
:1020C00006983E46CCF81400BCF80200CCE9025653
:1020D0000130C0F30E00012838BF0120ACF8020027
:1020E00040EA0140D3F810C0EFF3108572B6DCE887
:1020F000CF7F0126002FFAD1CCE8476F002FF6D111
:10210000BFF35F8FB3F804C02EF832C099801A690C
:10211000C2E88F4F85F3108801211C78DA68A1404E
:1021200002F501535960F0BD0023C5E88F3F80F3ED
:1021300010884FF0FF30F0BD03464089B0EB214FCF
:102140003ADD58690A1402EB420210B5D3F810C008
:1021500000EBC200EFF3108E72B6DCE8CF4F012225
:10216000002CFAD1CCE8442F002CF6D1BFF35F8FBE
:10217000428889B292B28A4207D000221B69C3E822
:102180008F2F8EF31088002010BD6FEA42426FEA55
:10219000524242800121002218699971C0E88F2FB4
:1021A0008EF3108893F800C0DA68084602F50153F0
:1021B00001FA0CF1596010BD00207047EFF3058261
:1021C000D2B27AB13F4A536A8B4209D314BF01237A
:1021D0000023926A824234BF184643F001007047E0
:1021E0000020704770B5384B84B0DD68064628463D
:1021F0001C78CDE9021200F07DF804F1040C55F8CA
:102200002CC0029BACEB000C301A63EB0101604563
:1022100071F10001039A1ADB2A4A516A994207D3E5
:10222000926AB24201D2994202D0012004B070BD3C
:1022300020BF244A516A99422DD314BF01200020A7
:10224000936AB34228BF40F0010004B070BDCDE9ED
:10225000022300F057F8039B864263EB010100293B
:10226000029A1BDB19491848CDE900123246029345
:10227000FFF7FCFE011E029B10DD124A506A9842D5
:1022800019D220BF10480293FFF756FF0D4A029B58
:10229000516A9942D1D2002004B070BD094A506AF7
:1022A0009842F8D3C01A18BF0120936AB34228BFDE
:1022B00040F00100C9E7926AB242E3D29842E1D10C
:1022C000DFE700BF00000B40A4090020591C0010EC
:1022D00010B4054B054C064AA04214BF1846581CC2
:1022E00010BCFFF76FB900BFE40F002000800B4067
:1022F000585500100346416A0A46986A596A8A424C
:10230000FAD17047034B596A0A46986A596A914252
:10231000FAD1704700000B4000B58E46154A536A4B
:102320009C46916A536A6345FAD1401853EB0E03F9
:102330004FF0000228BF0122BAB10E4B5A6A531C5B
:1023400008BF104608D04FF0FF33184609494A6AC3
:102350009A42FCD39A4207D1064B02E0596A914255
:1023600002D1996A8142F9D300BD024A526A93426E
:10237000ECD8EFE700000B4070B5044682B00620B1
:102380000E4600F0EFF8002844D0384A384894420E
:1023900014BF4FF080624FF00062364B3649026046
:1023A0001A608D6832EA0505FBD1304A4FF480701F
:1023B000A21AB2FA82F23149520921F8120006201B
:1023C00000F0D0F8C200B2FBF6F20132D10923D1FD
:1023D000402601236362A162256BEB0725D42346C7
:1023E000002153F82C2F062003F58052116025633D
:1023F000019200F0B7F840F2013503218000B0FBF4
:10240000F6F0E36A019A83F0700303F07E03136031
:102410002563A16402B070BD4FF6FE7081421DD9E4
:1024200029464FF6FF73164ED4E740F2013204F509
:1024300040531A63636AA26A062002EB8312019278
:1024400000F090F80F4B019AA3FB00139002DB0AF7
:10245000B0FBF3F00021FFF75FFFC0E7C2F34502D6
:102460000B4602EB81161146B4E700BF008007401F
:10247000002002400030024000000240EC21002019
:10248000C0FF3F00757B2B8F00EB400C4FEA8C0C9C
:102490000CF1804C0CF5803C70B51E46DCF8043025
:1024A000041FB3F5803F38BF4FF48033E4B238BF28
:1024B000CCF80430012C2ED94FF40065284B0CF5D4
:1024C000405ECEF8005053F820E0BEF1000F17D167
:1024D000DCF800E0012C8EEA421202F0E0020CF57A
:1024E000805ECEF800202BD94FF4006143F82060C5
:1024F0004FF480330CF500521160CCF8043070BDFD
:102500005D69B5FBFEFE0EF1010E0EEB4E0EBEF147
:10251000030EFCD2DCE70129CED103240CF5405395
:102520001C60DCF80830DB07FBD5DCF800300CF56C
:10253000805E83EA421303F0E003CEF80030084BDC
:102540000122DCF800404C4004F00304CEF80040C7
:1025500002FA01F1DCF808200A42FBD0C4E700BF10
:10256000EC0F0020014B53F820007047EC0F0020C7
:102570002DE9F041584C0646206C1746B0F5803FD7
:1025800038BF4FF480320B464FF0030184B038BFA0
:102590002264524A504CD163626CD207FCD5E26B84
:1025A0004F4982F0200202F0E002CA63E26B4A4C1B
:1025B00082F0010202F00302CA63626C9507FCD547
:1025C0004FF400614FF48038464A474DD163474A83
:1025D00003936A6101213246C4F840804448009761
:1025E00000F046F94FF40061039B07FB03F3B6FBD1
:1025F000F3F6636B434538BFC4F83480374B2A6920
:1026000019633AB16B69B3FBF2F3013303EB430394
:10261000033BFDD23049324A0B6B03F0E0031363F6
:102620000B6B83F0020303F0030313638B6B5807F8
:10263000FCD54FF400644FF480332A4A14632D4ACA
:102640004B632A610A6C244C9A424FF0030238BF54
:102650000B64224BDA63636CDA07FCD5E36B204A28
:1026600003F0E003D363E36B1B4983F0010303F042
:102670000303D3634B6C9B07FCD54FF480334FF4BB
:102680000064184A6E61D4630B64CA6C9A4238BF06
:10269000CB644FF40061114BAA6999643AB16B693C
:1026A000B3FBF2F3013303EB4303033BFDD24FF4DF
:1026B00000604FF48031084A094C936C83F040036A
:1026C00003F0E003A364074B084CAC619864D16449
:1026D00004B0BDE8F08100BF0000014000300140BF
:1026E0000010014000200140EC0F0020006CDC02D3
:1026F00000000540001BB7002DE9F04F4FF4A07813
:10270000964685B00391DFF8649156490193494597
:102710000AD908F1FF38A1F53B51B8F10F0FA1F12B
:102720002001F4D1002066E0072301F53722029151
:1027300003FB03F102F5D872B2FBF1FA82454FF0C8
:10274000010C4FF002074FF003064FF004054FF065
:1027500005043FD0B3F1010A00F082800AFB03F1C7
:10276000B2FBF1FB584549D01CB303FB04F1B2FBAB
:10277000F1FB58454BD0E5B105FB03F1B2FBF1FB92
:1027800058454DD0AEB106FB03F1B2FBF1FB584505
:102790004FD077B107FB03F1B2FBF1FB584551D0A5
:1027A000BCF1000F05D00CFB03F1B2FBF1FB83453C
:1027B0004DD0534603FB03F1B2FBF1FA824504F11D
:1027C000FF3405F1FF3506F1FF3607F1FF370CF155
:1027D000FF3CBFD101FB10210029BBD172461F462F
:1027E000DDF80CA00120204901FB08F1CAF8001017
:1027F0001360019B1F6005B0BDE8F08F01FB102145
:102800000029B1D157467246DDF80CA0EAE701FB7A
:1028100010210029AFD172462746DDF80CA0E1E770
:1028200001FB10210029ADD172462F46DDF80CA026
:10283000D8E701FB10210029ABD172463746DDF8FD
:102840000CA0CFE701FB10210029A9D1DBE701FB98
:1028500010210029ADD172466746DDF80CA0C1E712
:10286000029956E750262F00001BB70050F80C00C5
:1028700010B5029C8E464FEA043C4CEA034C1C4BBC
:10288000B3FBF1F30168B2FBF3F4002920DB194A32
:10289000194B904214BF4FF480424FF40042174945
:1028A0001A6003F580531A608B6832EA0303FBD188
:1028B000212200F540530433C0F800E084601A6020
:1028C0000268002AFCDA0822C0F80CC01A6010BDA9
:1028D000036803F03F037345D9D18368C3F30B0347
:1028E000A342D4D1C36803F4EE236345CFD110BD16
:1028F000001BB7000080054000200240000002409D
:10290000012300EB4000800000F1804000F58410BE
:1029100041600360704700BF4FF0000C30B51346B4
:1029200083B004460D46BCF81620002141E800F1B2
:1029300001934B0254BF1021042144F252209047CE
:1029400086462A460A212046F446019B03B0BDE88C
:10295000304060470023DB8A002242E800F2520246
:1029600001D4102118470421184700BF002808B5DA
:102970000EDB52B941F020010023DB7C022B0AD090
:1029800002464FF48170FFF7C7FF41F03001F3E7D3
:102990008B06F5D5F0E702464FF49170FFF7BCFFC8
:1029A000034AD2F82838002BFBD0BFF35F8F704763
:1029B00000000E400021044B044ABFF35F8F43F830
:1029C000041B9342F9D170470C080E402C080E40AE
:1029D0004FF42A6C4FF48D70054A064B0649C2F835
:1029E00000C0D06019605368002BFCDA704700BF4C
:1029F0000080044000A0044000B0FA00704700BF0F
:102A000008B50148FEF7AAFD7C55001038B5054C05
:102A1000054DAC4204D254F8043B9847AC42FAD37B
:102A200038BD00BFC0540010045500100648DFF840
:102A300028C0064B064A0749C0F800C01A608B68D8
:102A400032EA0303FBD1704700200240003002400D
:102A5000F6FFF303000002407F3BEFEF044BDB6C1B
:102A6000B3F5004F03D14FF48022024BDA64704774
:102A700000001150002011504FF0E022044BD2F81A
:102A8000881D0B43C2F8883D10EE3004704700BF2C
:102A9000030330006FF06041044B054A19609368EE
:102AA000DB4333F06043FAD1704700BF003002408F
:102AB0000000024010B545F25320FFF74BFFBDE880
:102AC000104003460420184710B545F25320FFF785
:102AD00041FFBDE81040034601201847FEF7F4BD52
:102AE0001349144B70B55C1AA508442D2A4628BF1B
:102AF0004422114E9200304602F02CFC432D13D894
:102B00000E4A0FD0C5F144003319410803EBC1014F
:102B1000C3E9002208338B42FAD1C30704D520F061
:102B20000100054446F82520054B9E6070BD00BF9E
:102B30000000001010010010000000201101001022
:102B400000ED00E0002370B52B4C82B0C4F8843057
:102B5000FFF73EFF0122294BDA63636C012BFCD1A6
:102B60000321264A244B11639C6B012CFCD10226C5
:102B7000052521460523224A22480096FFF778FEC4
:102B800021462B46204A21480095FFF771FE00227E
:102B9000042031461E4BFFF777FC214628460022D1
:102BA0001C4BFFF771FC0022082011461A4BFFF75F
:102BB0006BFC002209201146174BFFF765FC002231
:102BC00006201146134BFFF75FFC0022114B072034
:102BD0001146FFF759FC0420FFF7C4FC00240F4BFB
:102BE000A3FB0035AD0CE0B229460134FFF788FEA7
:102BF000062CF8D102B070BD000001400030014049
:102C0000002F685900000540008C86470080054071
:102C1000001BB70080D1F008006CDC0283DE1B4390
:102C200086B003B451FC0804CDE9020151FC09044B
:102C3000CDE9040151EC0A04CDE9060103BCF047DB
:102C4000BDE800504EEC00C4BDE800504EEC01C49D
:102C5000BDE800504EEC02C400BD000000B5FFF717
:102C6000DFFF02E010FE30F4F8D441EC100443EC36
:102C7000112400EE010410EE010480EE200451EC5A
:102C80001004704700B5FFF7CBFF02E010FE30F4F0
:102C9000F8D441EC100443EC112400EE010410EED2
:102CA000210480EE200451EC3004704700B5FFF79A
:102CB000B7FF02E010FE30F4F8D410B541EC100478
:102CC00043EC112451EC040453EC0524A0FB024C0A
:102CD0005FF0000EE0FB03CEE1FB02CE4CEC2044A3
:102CE0000024E1FB03E444EC30E480EE200451ECEA
:102CF000500410BD00B5FFF793FF02E010FE30F462
:102D0000F8D441EC100443EC112451EC2104A0FB55
:102D100001126FEA820252FB100052FB12F252FBC8
:102D20001000A0EBD07C53EC04245CFB13F153ECBB
:102D30001524A1FB022001FB030053EC4424A2EB69
:102D4000000050FB1CF24FEA111312EB017043EB31
:102D5000E27140EA515020EA915020F0070053EC14
:102D60007524A0FB023C53EC752400FB03CC01FB53
:102D700002CC53EC0424ACEB824C40EA5C70A0F132
:102D8000010041EC400480EE200451EC70047047D7
:102D900000B5FFF745FF02E010FE30F4F8D441EC37
:102DA000100480EE220410EEB204704700B5FFF765
:102DB00037FF02E010FE30F4F8D440EC700400EE6F
:102DC000010410EE210480EE200451EC3004704721
:102DD00000B5FFF725FF02E010FE30F4F8D440EC18
:102DE000600400EE010410EE210480EE200451EC9A
:102DF0003004704700B5FFF713FF02E010FE30F417
:102E0000F8D441EC800400EE010410EE010480EEE1
:102E1000400410EE1304704700B5FFF701FF02E015
:102E200010FE30F4F8D441EC800400EE010410EE02
:102E3000010480EE400410EE3304704700B5FFF744
:102E4000EFFE02E010FE30F4F8D441EC100443EC45
:102E5000112400EE010410EE3004C0F3007070473E
:102E600000B5FFF7DDFE02E010FE30F4F8D443ECCD
:102E7000102441EC110400EE010410EE30F48CBF7C
:102E800001200020704700BF00B5FFF7C9FE02E037
:102E900010FE30F4F8D443EC102441EC110400EEA1
:102EA000010410EE30F42CBF01200020704700BF59
:102EB00000B5FFF7B5FE02E010FE30F4F8D441ECA7
:102EC000100443EC112400EE010410EE30F42CBF8A
:102ED00001200020704700BF00B5FFF7A1FE02E00F
:102EE00010FE30F4F8D441EC100443EC112400EE51
:102EF000010410EE30F48CBF01200020704700BFA9
:102F0000000000000000000000000000DB60BE28A0
:102F10004A059193F4D5097F70374D7D66A5D83663
:102F200010E4104FAFF224024B1102EB830201F0C8
:102F30001F034FF001049C40A4FB0034D568A5FB9F
:102F40000456956805FB0466E5FB0356556805FBCA
:102F50000366704700000000410201D150F00040BC
:102F600050F480007047F0B5012363F3DF50C1F1E6
:102F700009014FF07E07FFF7D5FFB30F53F10003B0
:102F80009C44B6EB8376B20028BF5242B2F1805F18
:102F90000BD20231FFF7C6FF96EA260242F1000289
:102FA000B2F1805F01D2023FF3D50A4CA2FB0424A8
:102FB000B4FA84F29440240AA7EB020244EBC25014
:102FC000C10DD1F17F01F60F00EBC673BDE8F040F3
:102FD00073E00000A2DA0FC911F1800FBCD030EA13
:102FE000CC7248BF0CF1020C20F0004000EE100A39
:102FF0000DA2F2EC032A22EE802A11F1080FB9FE8D
:10300000422AB0DDA2EE630AA2EE430A10EE103AA5
:10301000FDEEC21AC3F3C752782AA4D3D2F17F01BE
:1030200011EE902A944448E083F9223F7A7795B6CE
:103030000010C93F07B5C0F3C751FF2925D000F0E4
:1030400032F8BDE80640CEF800000ED2C9438CEA43
:10305000D17C63EEA02AE1EE032A73EE622A12EE1F
:10306000900A80EACC70106000BD8CEAD17C21EE21
:10307000232AA3EE602A8CEAD37133EEC22A12EE21
:10308000100A80EAC170106000BD4102BDE80E4028
:1030900001D150F0004050F480001060186070477B
:1030A0005FF0000C01E05FF0010CC0F3C751A1B369
:1030B000D1F17F0190D920EACC7323F0004000EEDB
:1030C000100AC0F38440203030FA01F1834A51F1F4
:1030D0000001B2EC024A02EB810202EBC102D2EC27
:1030E000032A70EE620A20EEA01A5FEA5C0C61EE21
:1030F000201A15D221EE041A61EEA41A70EEE10A2C
:1031000021EE232AA3EE602A8CEAD37133EEC22A81
:1031100012EE100A80EAC170704700F00040C7E765
:1031200061EEA41A70EEE10A21EE041A63EEA02A01
:10313000E1EE032A73EE622A12EE900A80EACC7066
:10314000704700BFAFF30080C1FEFF3E25AA2A3EB4
:10315000000000000000803F0000000061C9FC3C4E
:10316000CDE07F3F1CBFFC3C7605813DFE7D7F3F6F
:103170009EEF803D090CBF3D0FE37E3F22C5BE3D63
:10318000B624FF3D14047E3FE27BFE3D13071F3E45
:1031900048EB7C3FA0631E3E6D30403E1D817B3F6F
:1031A00015103F3EA2AD603ECFDC793F3EE15E3E72
:1031B0007B0D803EFA08783F96717D3E6E988F3E7B
:1031C00065FF753F68B88D3EF4E19F3E939E733F67
:1031D000FD4B9D3EC654B03EAEF7703FB3DDAC3EF6
:1031E000C589BF3E604B6E3F0A1ABB3E26C4CF3E28
:1031F000CA356B3F631CCA3EF254E03E66D1673F5E
:103200000739D93EDDF0EF3E4B66643F1641E73E9D
:10321000312B003F8894603F0FC3F53E07E4073F22
:10322000A2C55C3F2B99013FC51F103F8F7D583FC2
:1032300065A1083F8AF6173FB534543FCA310F3FA6
:10324000E2FF1F3F599B4F3FD7C8153F4606283F17
:103250006BCF4A3FC4371C3F4130303FE0B9453F58
:10326000E49A223FA71D383FCA98403F20A6283F36
:103270002FC73F3FAC763B3F4A562E3FDB13483FBC
:10328000CCB6353F6B52343F79C74F3F2F35303F77
:10329000D0B4393F52DD573F70412A3F912D3F3F17
:1032A00026CE5F3F9F3E243FC35D443FF125683FEC
:1032B00050C21D3F1C9D493FE13B703F4150173FAD
:1032C000BF7E4E3F7810783F71ED103FAF06533F01
:1032D000D4F47F3FA75A0A3F9B64573F4831001000
:1032E0009A4238BF88547047704700BF2DE9F04FAD
:1032F00083B00F461146DDE90EB292079846DDE92C
:103300000C93064629D00D469BB109EB030405EB4F
:10331000040A01950D460D93AAEB040214F8010D61
:1033200043463946B047A145F6D129460D9B019D3C
:103330001D440F9B9B070CD56C1AA34509D92A463F
:103340004346394620200134B0475C4505F101056C
:10335000F5D3284603B0BDE8F08F5B4515D28A4609
:103360001C468946ABEB03050D445246434639469D
:1033700020200AF1010AB047AA45F6D14946234662
:10338000DDF83090002CC0D1E3E70D46002BBCD116
:10339000DFE700BF2DE9F04F0F460F9906469DF875
:1033A0002C008D079046DDE90CA299468346099CC6
:1033B000DDF828C00E9B49D4002B42D1944545D25C
:1033C00001F0010504F1FF3E3020E64405E00CF178
:1033D000010C62450EF8010F02D9BCF1200FF6D1A5
:1033E000002D00F08780634530D9601E4FF0300E0D
:1033F000604405E00CF1010C9C4500F801EF25D07C
:10340000BCF1200FF6D1CD060ED5480551D462454A
:1034100064D0634562D0BAF1100F4DD0BAF1020FFB
:1034200055D0BCF1200F2DD12022CDE90B310A92CD
:103430004B464246394630460994BDE8F04FFFF707
:1034400055BF11F001052ED19445BBD3CD061ED535
:103450004805E0D4BCF1000FD9D1BAF1100F5FD00C
:10346000BAF1020F74D030224FF0010C2270BBF180
:10347000000F12D1480742D52B2204F80C200CF182
:103480000102D2E762460CF1010C3020A054BCF1DD
:10349000200FC9D0BBF1000FECD02D2204F80C2076
:1034A0000CF10102C1E798B3944503F1FF3389D3CE
:1034B00099E7BAF1100FB7D18D063DD5BCF1200FB9
:1034C000B2D0582204F80C200CF1010CA9E7BCF191
:1034D000200FA9D062460CF1010C08E0BCF10102FA
:1034E000BBD0BAF1100F35D0BAF1020FCDD16220A6
:1034F000A05496E7CD06CAD5480588D58BE70A07BC
:1035000049BF2022624604F80C200CF101028CE72E
:1035100011F00C0F00D0013B9445FFF453AF62E76C
:103520008A0613D47822227030224FF0020C627087
:10353000BBF1000F9ED0B0E7BCF1200F3FF474AF99
:10354000782204F80C200CF1010C6AE75822EAE713
:103550006222E8E78D06ACF1020004D54FF0580E68
:1035600004F800E091E74FF0780E04F800E08CE7F3
:1035700000B9704701F038BB2DE9F04F97B09DEDD1
:10358000207BDDE9225B8046894651EC170B9A4689
:10359000249B0C92079302460B468DED047BFFF7AC
:1035A00051FC002840F0E381DDE904014FF0FF32D7
:1035B0006FF48013FFF758FC002840F0CB80DDE962
:1035C00004014FF0FF32B24BFFF78AFC002840F0B5
:1035D0009F80DDE90467AAA3D3E90023304639467A
:1035E000FFF77EFC002840F08280A7A3D3E90023E8
:1035F00030463946FFF738FC002878D13046394646
:1036000000220023FFF730FC002840F098800D9046
:10361000079B302113F4806F08BF06250EAA2B46A6
:10362000A5F1200605E0013BB34202F8011B00F0C2
:103630006581092BF7D81E46ED1ADDE90401FFF775
:10364000DDFB944B044603EBC60393ED007B8DED4D
:10365000087BFFF7AFFB02460B46DDE90401FFF7ED
:1036600015FBDDE90823FFF725FBCDE90A01FFF78C
:10367000D7FB0746FFF7B0FB02460B46DDE90A0120
:10368000FFF704FB0022844BCDE90A01FFF728FC79
:10369000002800F0888001373846FFF79DFB02467E
:1036A0000B46DDE90801FFF7F3FB08B10027013401
:1036B000002E00F088800DF13703DFF8F0C15819B3
:1036C0000DE0ACFB0721C90801EB8102A7EB420228
:1036D0003032092F00F8012F40F2FB800F46202DD9
:1036E00006F1FF3605F10105EBD1202586E0079BA9
:1036F0009DED047BCDE923B34946534640460C9AE1
:103700008DED207B229517B0BDE8F04F00F080B919
:10371000079B494658074CBF042303234046219387
:103720005346079A48BF5D4CCDE922B258BF5C4C66
:103730000C9A209417B0BDE8F04FFFF7D7BD3B4679
:10374000324600200021FFF7A1FA0123CDE9040150
:103750000D935DE7079B03F002029C07049200F0C3
:10376000F4800C9F3D464F4E341D14F8010D2A463F
:1037700053464946C047A64205F10105F5D1049BD1
:103780003C1D63B10C9D631B9B4508D922465346E3
:10379000494620200134C047631B9B45F6D820468C
:1037A00017B0BDE8F08F0022DDE90A013A4BFFF7C0
:1037B0005BFB00287FF47CAF002F40F0C280013714
:1037C000002E7FF478AF2046FFF7F4FA02460B464E
:1037D000DDE90401FFF75AFA00222F4B06460F4697
:1037E000FFF742FB40B93046394600222A4BFFF72B
:1037F00077FB002800F0A1800DF137032A48591902
:103800000EE080FB0476C2EBA60202EB8206A4EB7C
:10381000460630361446013501F8016F002A47D0BC
:10382000202D4FEAE472ECD1079A02F00302012A3C
:1038300014D1BBF1000F11D00D9A002A60D00BF10A
:10384000FF3BBBF1200F09D930222B4404E00135A6
:103850005D4503F8012F31D2202DF8D1079B0EAC26
:10386000CDE902B300945346494640460C9A01956F
:10387000FFF73CFD0446204617B0BDE8F08F00BFBF
:103880000000000065CDCD410000000065CDCDC138
:10389000FFFFEF7FE05A00100000E03FD05500101E
:1038A000D8550010E055001067666666CDCCCCCCCC
:1038B000079A02F00302012A00F09680202DCDD055
:1038C0000D9B3BB32D220DEB050383F8382001350A
:1038D000C4E7202D3FF409AF30212E445A1905E0EA
:1038E0000135202D02F8011F3FF4FFAEAE42F7D1A3
:1038F0002E226E44013586F838207FE720259CE68D
:10390000079A12F00C0F5AD00BF1FF3BAB459BD836
:10391000202DA3D0079B5A0706D52B220DEB0503BC
:1039200083F83820013599E71B0797D520220DEB46
:10393000050383F83820013590E7013424F00104B1
:103940005AE7F9077FF5B4AE39E7BBF1040F7FF60C
:1039500008AF0C9B1D46043B03EB0B072A4653465E
:10396000494620200135C047AF42F7D1FAE6079B10
:1039700003F002029D07049225D00C9F3D46224E83
:10398000F41C14F8010D2A4653464946C047A64286
:1039900005F10105F5D1049BFC1C002B3FF4FFAEA3
:1039A0000C9D631B9B457FF6FAAE22465346494663
:1039B00020200134C047631B9B45F6D8EFE6AB459A
:1039C0003FF642AF4AE7BBF1030FD6D90C9B1D4629
:1039D000033B03EB0B072A4653464946202001359B
:1039E000C047BD42F7D1C9E7BBF1000F3FF466AF56
:1039F0000D9A002A84D00BF1FF3B5D45FFF424AF04
:103A0000202D7FF45FAF29E7DC5500100000000097
:103A10002DE9F04F9FB01E46DDE928ABDDE92B987C
:103A20002A9B04460D460B920A9352465B4650462B
:103A30005946FFF707FA002840F0C680504659461D
:103A40004FF0FF327B4BFFF74BFA002840F0BC8071
:103A5000504659464FF0FF326FF48013FFF704FAD7
:103A6000002840F0B1805046594600220023FFF75D
:103A7000FBF9002840F0DD81CDE908ABDDE9081253
:103A800018F480600B460F4608F400610C92149104
:103A9000159040F0A880134340F0D080002940F0FA
:103AA000EC8106230A9318F00202109240F0DD81A7
:103AB0004B46042B38BF04230E920422043B12927F
:103AC00014935046594600220023FFF7CDF90028F1
:103AD00040F02A829DED087B149B0B9A03930A9B6E
:103AE0008DED007B029328F400630493294633464E
:103AF0002046FFF741FD024618F0200F33462946C5
:103B00000CBF6520452002F10108A047129B0DF172
:103B1000580A03F1FF3B0E9B002283EAE37C5046E8
:103B2000DFF814E10B9FACEBE37CD90FCDF82080DC
:103B300002E0202AC44610D0AEFB0C384FEAD80869
:103B400008EB8803ACEB430301303033BCF1090FC1
:103B500002F1010200F8013CEBD805234FF0000C04
:103B600006930A23DDF82080CDE90121CDE9033C4D
:103B7000CDF800A03346424629462046CDF814B081
:103B8000FFF708FC109B8246D3B1A0EB0708C145A4
:103B900016D907EB080233462946202008F1010810
:103BA000A047C145F5D87B1E4B44C7F10102A3EBEA
:103BB0000A035244914538BF00230AF1010A9A448E
:103BC00050461FB0BDE8F08F334629462046CDE968
:103BD00028AB0A9CCDE92B980B9A2A941FB0BDE81C
:103BE000F04FFFF7C9BC57EA020329D100293FF47F
:103BF0005AAF00230E930A9B0E9A934200F3BA81A8
:103C000000275046594600220023FFF72DF90028CF
:103C100040F015819DED087B28F4006343F4806338
:103C20002C938DED287B334629462046CDE92A7911
:103C30000B9AD3E7FFFFEF7FCDCCCCCC06230A93C2
:103C40000C9BC3F30A50A0F2FF30FFF7B3F8B2A306
:103C5000D3E90023FFF72EF8B1A3D3E90023FFF740
:103C600001F80C9BCDE90E01C3F3130343F07F5120
:103C700038460022A24B41F44011FFF707F894A305
:103C8000D3E90023FFF716F802460B46DDE90E01E3
:103C9000FEF7E8FFFFF7B2F80E90FFF78BF88EA360
:103CA000D3E90023CDE90C01FFF704F80022954B7E
:103CB000FEF7D8FFFFF7A2F889A3D3E90023074650
:103CC000DDE90C01FEF7F6FFCDE90C013846FFF700
:103CD00071F885A3D3E90023FEF7ECFF02460B46FB
:103CE000DDE90C01FEF7D2FF02460B46CDE90C23BD
:103CF000FEF7E0FFCDE91001DDE90C0102460B46BD
:103D0000FEF7B0FF0022CDE91201DDE910017E4B84
:103D1000FEF7F4FF00227D4BFEF7A4FF02460B46A0
:103D2000DDE91001FEF7EAFF0022794BFEF79AFF6A
:103D300002460B46DDE91001FEF7E0FFCDE9100178
:103D4000DDE90C2300204FF08041FEF79FFF024683
:103D50000B46DDE91001FEF785FF02460B46DDE963
:103D60001201FEF7CBFF00226A4BFEF77BFF07F242
:103D7000FF3C00224FEA0C53FEF79CFF02460B4625
:103D8000DDE90801CDE90C23FFF76EF850B1DDE95C
:103D90000C010E9B0022013B0E935C4BFEF7AEFF25
:103DA000CDE90C01DDE90C010E9B02466333C62B05
:103DB00008F002031093149B2DD8002B5FD004232E
:103DC00012930A433FF417AFDDE9080148A3D3E992
:103DD0000023FFF771F848B1DDE9080146A3D3E9F4
:103DE0000023FFF741F800287FF405AF0A9B002B62
:103DF00051D0159A002A00F0AC80013B0A93129B27
:103E0000994505D9109B002B00F0AF800223109339
:103E10000023149344E02BBBB9F1050F4FD908F0F0
:103E20000203002B49D105231293A9F10503149332
:103E30003AE00BF10043CDF820A009931EE628F4E8
:103E4000006343F480632046CDE92A792C933346FE
:103E5000DDE908673446294607F10045CDE92845E4
:103E60000B9ABBE605231293ABE7022200231092C4
:103E70000422149312920E9323E60527C1E6B9F1AA
:103E8000040F1FD9109B002B77D104231293A9F1A3
:103E90000403149304E0129B99455FD80A9B149382
:103EA0000E9B002B3FF40DAEDDE90801DDE90C238C
:103EB000FEF724FFCDE9080103E602231093052352
:103EC0001293F1E704231293EAE700BFAFF30080F7
:103ED00061436F63A787D23F71A379094F930A406B
:103EE0001655B5BBB16B0240EF39FAFE422EE63FE4
:103EF0002D431CEBE2361A3F0000000080842E4167
:103F00000000F83F0000E03F00002C40000024408B
:103F1000000018400000F03FFB799F501344D33F4E
:103F2000B3C8608B288AC63F149BDDE908A70393BA
:103F30000A9B07F1004B029328F400630B9A049349
:103F4000294633462046CDE900ABFFF715FB024674
:103F5000D2E5129B994515D81492A1E7109B23B185
:103F60000A9B1493022310939AE7129BA9EB030375
:103F7000149395E79B1A5F1E43E6042312930223D2
:103F800010938DE7109B002BEFD002231492109317
:103F900086E700BF2DE9F04F91469A4C9A4AB1F15D
:103FA000000A9BB018BF834614601878974ADDF862
:103FB000908008BF9346002800F08A821D460026A4
:103FC000CDF8209008E032465146089BD84701368C
:103FD0002878002800F0C780252805F10105F2D1D6
:103FE00000222B4613F8011BA1F1200010280AD84B
:103FF000DFE800F03F09093B090909090909093708
:10400000093309092F00A1F13000092840F2898005
:104010002A2900F0E98000242E2900F0948000274E
:10402000A1F1680012282CD8DFE810F04E012B0017
:1040300049012B0040012B002B002B002B002B00F3
:104040002B002B0027002B002B002B002B002B001C
:1040500027001D4642F00102C3E71D4642F002025E
:10406000BFE71D4642F00402BBE71D4642F01002C6
:10407000B7E71D4642F00802B3E7697842F4807260
:10408000013367291D467ED8242940F2B880A1F16A
:104090002503422B00F2B380DFE813F05101B10099
:1040A000B100B100B100B100B100B100B100B10088
:1040B000B100B100B100B100B100B100B100B10078
:1040C000B100B100B100B100B100B100B100B10068
:1040D000B100B100B100B100B100B1001E013A0160
:1040E0001E01B100B100B100B100B100B100B100DA
:1040F000B100B100B100B100B100B100B100B10038
:10410000B100B401B100B100B100B100B100B10023
:10411000B100B100B100B4015801B4011E013A016F
:104120001E01002404EB840401EB440419781D46AD
:10413000A1F130000928A4F1300403F10103F1D901
:104140002E297FF46CAF69781846A1F13007092F4A
:1041500042F4806240F225812A2900F032811D4616
:10416000002701335CE73446DDF82090B14501D8E3
:1041700009F1FF364B46324651460020D8472046CB
:104180001BB0BDE8F08FA1F16903DBB20F2B36D86D
:10419000012049F2410C984010EA0C0040F0F480F4
:1041A0000A2B35D0072B2AD158F8041B002940F0E0
:1041B000108122F0100412F4806144F0210400F018
:1041C0000A8112AA082305931023CDE90020324664
:1041D0000694049703930023029351465846089B84
:1041E000FFF7D8F80646F3E658F8044B6978002C38
:1041F0001D46BCBF42F00202644201330CE7084690
:10420000E1E600BF953F001058100020E932001091
:1042100058F8049B002F99F8000014BF3B464FF05C
:10422000FF33002800F08283494603EB090C04E0C9
:1042300011F8013F002B00F043818C45F8D1ACEB25
:104240000901530540F12081B94228BF394612F0D7
:10425000020300F083820223CDE9094832468846F2
:10426000089C37440B9307E023465146D84719F87A
:10427000010F013610B13246B742F5D10B9B4146D2
:10428000099CDDF82880002B3FF4A2AE37468C4213
:104290007FF69EAE2644089C761A3A46234651463F
:1042A00020200137D847B742F7D191E669786C29C9
:1042B0007FF4E4AEA97842F44072EB1CE1E6697841
:1042C00042F400720133DCE66978682900F0FB8073
:1042D00042F080020133D4E6672900F0C980472903
:1042E00000F0CD80452900F0CC80CDE9034208F1F3
:1042F0000708029728F007083246F8E80267514697
:10430000CDE900675846089BFFF782FB06465FE64B
:10431000462908BF42F02002CDE9034208F1070810
:10432000029728F007083246F8E802675146CDE9BF
:1043300000675846089BFFF71FF9064648E63246D5
:1043400051462520089BD847013641E608F1040371
:104350009207099306F1010740F1C38032465146A6
:1043600098F80000089BD847012C40F2B4812644FD
:10437000089C3A462346514620200137D847B74289
:10438000F7D1DDF8248023E66F2974D040F2418212
:10439000782900F086814FF00A0922F010024B467E
:1043A00038E0002707EB870701EB4701A1F1300751
:1043B00010F8011FA1F13003092BF3D90546431C66
:1043C0002EE658F8047BA97802356B1C27EAE777BC
:1043D00026E642F0210412AA944602E020283FF487
:1043E000F1AE01F00F03092B94BF303337330F299F
:1043F0008CF8003000F101000CF1010C4FEA1111B2
:10440000ECD8DFE6582966D0622940F089804FF069
:1044100002094B4612F4806C00F0D48022F00D02A9
:10442000099212F4007140F07B8112F4807008F15F
:10443000040940F03882510640F13A8198F80010A2
:10444000002940F04A81099A22F010020992BCF139
:10445000000F00F04281084612AA0999CDE90337FE
:10446000CDE9054101900023009202933246A1E07C
:1044700042F4006239E74FF008094B46CAE742F4BC
:10448000006242F0200230E712F0020300F08C815B
:104490000223CDE909481F468846089C3246234638
:1044A0005146D84719F8010F01360028F6D13B468E
:1044B0004146099CDDF82880002B3FF489ADE5E6F4
:1044C000A1EB0901BDE6A97842F0C002EB1CD8E5DA
:1044D000044606464AE64FF0100942F020024B46D9
:1044E00098E7012C40F2F180374606F1FF39CDF80C
:1044F0002880DDF82080A1443A46434651462020DA
:104500000137D8474F45F7D1DDF828803A4698F86B
:1045100000005146089BD8472644DDF8248057E523
:1045200012F4806300F0C1804FF4806322F0110028
:1045300010F4007E4AD110F4807C08F1040940F0A8
:104540003781410600F1A980020640F1E381B8F904
:10455000002082EAE271A1EBE2711FFA81FED10F25
:104560000991002A00F05F81734612AA9646DFF88F
:10457000A0830A9403E0BCF1200F23460FD0A8FBD0
:104580000314E40804EB8401A3EB41010EF1010ED6
:104590003031092B0CF1010C0EF8011CEBD80A9CF0
:1045A000099B0092CDE901C30A233246CDE90540BB
:1045B0000497039351465846089BFEF7EBFEC84606
:1045C000064605E522F00C0209922AE708F10708E1
:1045D00028F00708D8F8042058F808CBD10F5CEA77
:1045E000020E6CD0002A634602DA5B4262EB4202A2
:1045F0009146099312AA94464FF0000ECDE90A188D
:10460000CDE90C470E960F9203E0BEF1200F3B461A
:1046100030D04FF0CC3213EB0901BD4F41F1000116
:10462000A7FB014626F0030404EB9604091B5C1A61
:1046300002FB04F63A4669F1000802FB086605220F
:10464000A4FB077407F001082644A8FB024864187D
:104650000A2B0CF1010C4FEA570704F1300479F1F1
:1046600000090EF1010E0CF8014C47EAC6774FEA3B
:104670005609CAD27346DDE90A18DDE90C470E9ED9
:104680000F9ACDF824E0CDE901310A230092CDE95B
:1046900005403246049703939FE598F8002096461C
:1046A0005DE74FF010094B46B4E622F010003FE7FB
:1046B00011064CBFB8F80010D8F80010C0E6002B67
:1046C00040F042819946099394E73246514698F862
:1046D0000000089BD8473E4653E6099A0A9412F018
:1046E000200F14BF4FF041084FF0610812AA944602
:1046F000A8F10A0802E0202871460FD0B1FBF3FEB2
:1047000003FB1E14092C94BF3034444499428CF8A6
:10471000004000F101000CF1010CECD20A9C9CE677
:1047200008F1070828F00708D8F8042058F8081BF3
:104730000A920A438E467BD1099A22F0100209920E
:10474000BCF1000F74D0002012AA0999CDE9002015
:10475000CDE905413246CDE903373CE58C4298BFAF
:1047600001317FF679AD4FF48063CDE90994994624
:10477000A2190B97089F541A32463B4651462020F7
:104780000136D847A642F7D1DDE90A474B46DDF8A6
:10479000249099F8000000283FF41AAC611C002B0B
:1047A0003FF477AE002357E58C42DED8013170E646
:1047B000D8F80020D10F002A00F0B38082EAE2731B
:1047C000A3EBE27312AA9446CDE90914DFF8408105
:1047D00003E0BEF1200F23460FD0A8FB0314E4082A
:1047E00004EB8401A3EB41010CF1010C3031092BE6
:1047F0000EF1010E0CF8011CEBD8DDE909140A23B7
:104800000092CDE905403246CDE901E104970393DA
:10481000D0E6692922F0100040F0918012F4806304
:104820003FF486AE80E6002B3FF49FAE12AAB7E6B7
:10483000099ACDE90B8412F0200F14BF41216121A8
:10484000CDE90D76CDE90F3BCDF844A00027F04629
:104850000A9C12AE0DF1480BA1F10A0A03E0202FC9
:1048600080460C4613D021464A460023404600F0BD
:1048700017FED2B2092A94BF30325244C84574F1AF
:104880000004327007F1010706F10106E7D238464D
:10489000DDE90B845A460E9E0D9F0F9BDDF844A068
:1048A000DDF840B051E7D8F800E0BEF1000F0DD1BF
:1048B00022F010020992BCF1000F07D012AA099849
:1048C000CDE90337CDE905400191CCE5099A12F015
:1048D000200F14BF4120612012AA94460A92A0F131
:1048E0000A0202E02029C6460FD0BEFBF3F803FB04
:1048F00018E0092894BF303080189E458CF80000DD
:1049000001F101010CF1010CECD20A9AD7E700BFCA
:10491000CDCCCCCCD8F8002082EAE27EAEEBE27EB1
:104920001DE6002B3FF44EAF12AA68E712F4806137
:104930000ED012F0020114D001463746A7E44FF022
:104940000A0902464B4665E5002312AA09939AE636
:1049500012F002037FF49AAC002C7FF406AFFFF74D
:1049600037BB002C7FF4FFAEFFF732BB0EB400B5AF
:1049700084B00DF1140C5CF8043B01464FF0FF329B
:10498000CDF800C00448CDF80CC0FFF703FB04B01D
:104990005DF804EB03B07047E132001010B5094A2E
:1049A00084B014684CB1034600914FF0FF3203A964
:1049B0000548A047012004B010BD00F057F920467B
:1049C00004B010BD581000207135001000BEFDE786
:1049D000704700BF08B5FFF7F9FF00BF38B5064CB8
:1049E000064DFEF713F8AC4204D254F8043B984746
:1049F000AC42FAD338BD00BF045500100855001072
:104A0000036808461146184770B505460846697D93
:104A100082B000294FD0002A25DD037814460A2BE6
:104A2000064622D0012C4FF0000E0DD03246012355
:104A300012F801CF1946BCF10A0F03F1010320D08F
:104A40009C42F5D1744505DD2B68A4EB0E0106EB05
:104A50000E009847311911F8013CA3F10D03B3FA88
:104A600083F35B092B7502B070BD2B7D002BD9D170
:104A700002212B6813489847012CEBD04FF0010E10
:104A8000D4E712F8010C0D28DAD08E4506EB0E00A3
:104A9000A1EB0E0105DACDE900322B689847DDE97C
:104AA0000032CDE9003202212B6806489847009B6E
:104AB000019A9E46C4E711462B6802B0BDE87040DB
:104AC000184700BF305B00102DE9F04782B09046D8
:104AD0001C460D460746FDF715FC4FF0FF3C6FF0F6
:104AE00000462E4A821841F10003944576EB0301FB
:104AF0003CBF624633462A4800F0DAFC6B1C824613
:104B000040D00CB3274E284B1C68B4B1B8F1000F4D
:104B10001CD1DFF89C8001E0246974B12368002B6C
:104B2000FAD0D8F800300BB19C42F5D120462A4685
:104B30003946B0472469002CF0D1BAF1000F26D1D4
:104B4000284602B0BDE8F087184EDCE74FF00A09AE
:104B5000DFF85C8002E02469002CEED02368002B93
:104B6000F9D0D8F800300BB1A342F4D12A46394627
:104B70002046B047012220460DF107018DF807902D
:104B8000B047E8E7384600F05BFC0546B9E7044863
:104B900000F08AFC284602B0BDE8F08740420F00D2
:104BA000E00B0020094A001018100020014A0010F4
:104BB00048100020084A136823B90AE003F11002E4
:104BC0001B6933B18342F9D129B9186910601961A1
:104BD000704701B1106070471810002008B500F050
:104BE0003FF9012008BD00BFF0B583B006468DF83F
:104BF0000700FDF787FB4FF0FF356FF00044174AC1
:104C0000821841F10003954274EB03013CBF234637
:104C10002A46134800F04CFC124B07461C689CB116
:104C2000114D01E024697CB12368002BFAD02B6878
:104C30000BB19C42F6D1204601220DF10701FFF78E
:104C4000E3FE2469002CEFD117B9304603B0F0BD64
:104C5000034800F029FC304603B0F0BD40420F008D
:104C6000E00B0020181000204810002038B5044642
:104C700000F0E6FB012305461A4620462946FFF7C9
:104C800023FF084B1C682CB163682BB1984724693B
:104C9000002CF9D1284638BD2469002CF4D12846CF
:104CA00038BD00BF18100020B1F1000C1EDD104A05
:104CB000104B126810B5D31AB3FA83F30D24DFF842
:104CC00038E05B09411E3EF913E08C4411F8010FF6
:104CD000864506D093699B06FCD461451060F5D1EA
:104CE00010BD93699B06FCD41460F3E7704700BFC6
:104CF000F021002000800740EC210020244BB1F17E
:104D0000000C00B5D3F800E02FDD0021214B013865
:104D10001A689369DB0618D401319369DB06FCD469
:104D200013688C4500F8013FF3D1BEF1000F09D0A4
:104D300050211346916353F8342F02F0380203F5E3
:104D400080531A606146084600BDBEF1000F09D0CD
:104D500050201346906353F8342F02F0380203F5C5
:104D600080531A6081B1084600BDBEF1000F0BD020
:104D7000084B50211A681346916353F8342F02F000
:104D8000380203F580531A606FF00201DBE700BFC1
:104D9000DC0F0020F0210020054B1B6833B10021FF
:104DA000044A05481268006891631847704700BFBD
:104DB000DC0F0020F0210020E00F0020024B1A68D9
:104DC00093691B07FCD47047F021002030B51F4DBC
:104DD0001F4AD5F800C01F4C8E46944514BF2122AF
:104DE0002222216883B010B1A9B103B030BD0029DF
:104DF000FBD0CCF838000146019010460092FCF739
:104E00008FFC15490098FCF7B5FD019B134A236000
:104E1000136003B030BD114B20600F491046009263
:104E2000C3F800E0FCF792FC01210098FCF778FC45
:104E30002A6850211346916353F8342F02F0380248
:104E400003F580531A6003B030BD00BFF02100208D
:104E500000800740DC0F0020994D0010E00F00207B
:104E600010B50E490E4C0F480F4A104B00782160C8
:104E70000020022112781B78FCF7A6FA02210120FB
:104E8000FCF7A2FA4FF4E1312068FDF775FABDE8AE
:104E9000104001210648FFF78DBE00BF000007400B
:104EA000F02100208C5B0010885B0010845B0010F8
:104EB000BC0900200022014B5A607047880F002077
:104EC0000B4B10B5DB6ADB0709D40A4B0A4C0021F7
:104ED000DC620A48FDF720FA094BDC6210BD0022B3
:104EE0000549074B4FF0FF30D9621146FDF73EFDF3
:104EF00000001040002010400100FE5A400D030049
:104F00000030104000F12F4000F56000030D022B2F
:104F10000DD0012B05D0094A094801EB8301FCF7AC
:104F200051BB084A064801EB8301FCF74BBB064A1C
:104F3000034801EB8301FCF745BB00BF2C56001072
:104F4000E80F00206C560010485600102DE9F0477D
:104F500088460546FCF71AFB012298F804C098F928
:104F6000054005F12F4E314F0EF5600E02FA0CF29E
:104F70004FEA1E5E002C814657F82E6002F1FF3288
:104F8000CCF1200337DB9C4220462CD802FA04F3F4
:104F9000334228D198F807305B0737D402FA00F380
:104FA0001E429A463AD1BCF1000F12D0D8F8001038
:104FB00001EB4C08844631F8023B0CF11202B3F5C8
:104FC000005F38BF1B1841450CF1010C45F8223039
:104FD000F1D1484646EA0A0647F82E60FCF7E8FA9F
:104FE0002046BDE8F0874FF0FF344846FCF7E0FA72
:104FF0002046BDE8F0871C1E02DA0FE0013C0DD30D
:1050000002FA04F333422046F8D1C3E76FF00A04F2
:105010004846FCF7CDFA2046BDE8F0876FF008045B
:105020004846FCF7C5FA2046BDE8F087B00F0020DF
:10503000F0B51F2A9DF814503AD80C469E464EF201
:105040009F014EF280034FF4003704EB440C002D17
:1050500008BF194600EBCC0303F5435300EBCC0C1F
:10506000BEF1050FDCF8DC60DCF8CC50DF600ED957
:105070005301AEF1050E43F0A0530532BEF1050F0A
:10508000CCF8DC3002F01F02CCF8D810F0D8520176
:1050900004EB440442EA8E6300EBC402C2F8DC3045
:1050A0000020C2F8D810C2F8DC60C2F8CC50F0BDC5
:1050B0006FF00400F0BD00BFF0B5012404FA01F563
:1050C000046824EA05040460A3B3D3E901561F6809
:1050D000DC6801EB410300EBC303C3F8C8704FEA7F
:1050E000410CC3F8D060C3F8CC50C3F8DC400CEBE3
:1050F00001034FF0013500EBC30C4FF0004600EB0D
:10510000C30E01230EF5865E0C1D01F108078D40CC
:10511000CEF8106003FA04F4CEF8106002F01F021B
:105120008560BB4000F50050046003600020CCF8AF
:10513000D820F0BD4FF480374FF440264FF4F835B7
:1051400001EB410400EBC404C4F8C8704FEA410C01
:10515000C4F8D060C4F8CC50C4F8DC30C7E700BF56
:1051600000B5DFF81CC083B001460F230022CDF844
:1051700000C00248FCF752FA03B000BDF4D104208D
:10518000905600103A4B2DE9F043984214BF4FF46B
:1051900080234FF400230546364E374C374A83B000
:1051A00033602360946833EA0404FBD14FF00209B2
:1051B00006200191FDF7D6F9AE464A465EF8046F27
:1051C00001990EF540574FEA412843464FEAD15C1A
:1051D0001640C7F8009008E013EB080302F1020242
:1051E0004CEBD15CB2F5807F03D0984274EB0C0994
:1051F000F2D24FF48073C2EB022C01E0012B34D0C9
:10520000B0FBFCF841459946ACEB020C03F1FF33CF
:10521000F4D209FB02F91C0202212B46B0FBF9F083
:105220004FF0030C2A612A680EF5005E624005F516
:10523000805802F47F42C8F80020CEF800606C6805
:10524000396053F8242B0C4082F0070202F0CF02A1
:1052500003F50053C8F80020CEF80040C3F800C0A2
:10526000CEF8001003B0BDE8F0839146D4E700BF4C
:105270000080084000200240003002400000024050
:10528000024B00221B68C3E926027047D4090020A4
:105290000B4B0C4819680C4A10B4D1F89830D1F86F
:1052A0009C4003FB00F002FB0400A3FB023201332D
:1052B00040EB0200C1E9263020F0004010BC7047EE
:1052C000D40900202DF451582D7F954C30B584071A
:1052D0008646034606D0A2B303F8011B980702F1E5
:1052E000FF32F8D1032A26D95FFA81FC0F2A0CEB92
:1052F0000C2C0CEB0C402AD922F00F0C9C44C3E977
:105300000000C3E9020010336345F8D112F00C0F1E
:1053100002F00F0517D04FEA950C1A460CF1FF3436
:1053200003EB8C0C42F8040B6245FBD1043305F00F
:10533000030203EB840322B11A4403F8011B9A42CF
:10534000FBD1704630BD2A46002AF5D1F9E7154653
:10535000E1E700BF844641EA000313F0030349D1AB
:10536000403A23D30B6803604B6843608B688360CB
:10537000CB68C3600B6903614B6943618B698361CF
:10538000CB69C3610B6A03624B6A43628B6A8362B7
:10539000CB6AC3620B6B03634B6B43638B6B83639F
:1053A000CB6BC36340304031403ADBD230320BD359
:1053B0000B6803604B6843608B688360CB68C36095
:1053C00010301031103AF3D20C3205D351F8043BAF
:1053D00040F8043B043AF9D2043208D0D2071CBF8B
:1053E00011F8013B00F8013B01D30B8803806046B4
:1053F000704700BF082A13D38B07B1D010F0030306
:10540000AED0C3F10403D21ADB071CBF11F8013B75
:1054100000F8013BA4D331F8023B20F8023B9FE7A0
:10542000043AD9D3013A11F8013B00F8013BF9D213
:105430000B7803704B7843708B78837060467047AD
:1054400020F0030110F00300C0F1000051F8043B0C
:1054500000F1040C4FEACC0C6FF000021CBF22FAE2
:105460000CF213434FF0010C4CEA0C2C4CEA0C4CA0
:10547000A3EB0C0222EA030212EACC1204BF51F899
:10548000043B0430F4D0C2F1000102EA0102B2FA96
:1054900082F2C2F11F0200EBD20070470000000050
:1054A0005FF800F0D10500205FF800F01102002045
:1054B0005FF800F0A90100205FF800F0210500204E
:1054C000B52A00102D2A00105D2A0010452B00106F
:1054D000952A0010B5290010DD2A0010A12900101E
:1054E0000D1C0010E12A0010811F0010FD29001082
:1054F000C92A0010792A0010B9160010E116001010
:08550000B54E0010C14E001071
:10550800456E636F6465723A20256400537973743D
:10551800656D20636C6F636B206F66202575206B4B
:10552800487A2063616E6E6F7420626520657861C9
:1055380063746C792061636869657665640000004E
:105548000A2A2A2A2050414E4943202A2A2A0A0098
:10555800486172647761726520616C61726D2025A3
:105568006420616C726561647920636C61696D6542
:10557800640000004861726420617373657274008E
:1055880052656C6561736500626F6F74325F773264
:105598003571303830000000322E332E31000000D3
:1055A8007069636F320000005647415F416E696D54
:1055B8006174696F6E5F44656D6F0000536570209C
:1055C8003233203230323600666E692B000000001C
:1055D800666E69006E616E00666E692D00000000DF
:1055E8005541525420737464696E000055415254F9
:1055F800207374646F757400554152542073746439
:10560800696E202F207374646F757400646F7562FF
:105618006C65207265736574202D3E20424F4F548F
:1056280053454C0050494F203020534D20256420CD
:10563800616C726561647920636C61696D65640091
:1056480050494F203220534D20282564202D2038E2
:105658002920616C726561647920636C61696D658C
:105668006400000050494F203120534D2028256404
:10567800202D20342920616C726561647920636C67
:1056880061696D65640000004E6F20444D412063E0
:1056980068616E6E656C7320617265206176616900
:1056A8006C61626C650000000000000000000000F2
:1056B80000000000000000000000000000000000E2
:1056C80000000000000000000000000000000000D2
:1056D80000000000000000000000000000000000C2
:1056E80000000000000000000000000000000000B2
:1056F80000000000000000000000000000000000A2
:105708000000000000000000000000000000000091
:105718000000000000000000000000000000000081
:105728000000000000000000000000000000000071
:105738000000000000000000000000000000000061
:105748000000000000000000000000000000000051
:105758000000000000000000000000000000000041
:105768000000000000000000000000000000000031
:105778000000000000000000000000000000000021
:1057880000000000000000000000000000000060B1
:10579800606060000060505000000000000050F899
:1057A80050F8500070A0A07028287040A8502050D1
:1057B800A8102050A040A890684040400000000079
:1057C8001020404040201040201010102040103879
:1057D8001000000000002020F82020000000000039
:1057E80000101000000000F8000000000000000099
:1057F8001000081020408000708898A8C888702081
:10580800602020202070708808102040F8F81020B0
:105818001008887010305090F81010F880F00808C0
:105828008870408080F0888870F808102040808058
:1058380070888870888870708888780808100000D8
:1058480020000000200000200000202000186080B8
:105858006018000000780078000000C0300830C0F0
:1058680000304810202000207088B8A890887070F8
:10587800888888F88888F08888F08888F070888018
:1058880080808870F08888888888F0F88080F88020
:1058980080F8F88080F88080807088809888887088
:1058A800888888F888888870202020202070381000
:1058B80010101090608890A0C0A090888080808090
:1058C8008080F888D8A8A88888888888C8A89888F0
:1058D8008870888888888870F08888F080808070D0
:1058E800888888A89068F08888F0A0908878808058
:1058F800700808F0F82020202020208888888888D0
:10590800887088888888885020888888A8A8A8509F
:105918008888502050888888888850202020F80857
:1059280010204080F8E08080808080E00080402067
:10593800100800380808080808382050000000003F
:1059480000000000000000F8804000000000000097
:105958006010709060008080E09090E0000000701F
:105968008080700010107090907000006090F0803F
:1059780070003040E04040400000609070101060BF
:105988008080E090909000002000202020000010EF
:1059980000101010608090A0C0A09000202020204F
:1059A800202000000050A8A8A80000006090909057
:1059B800000000708888700000006090F08080000F
:1059C800006090F010100000B840404000000070E7
:1059D800401070004040E0405060000000909090FF
:1059E8006000000088885020000000A8A8505000DF
:1059F800000090606090000000909060408000007F
:105A0800F02040F00020404080404020202020200E
:105A180020202020101008101020000040A810009E
:105A28000000000000000000385A001009FF0100C3
:105A3800A08047A000E022A0C123A08004650463E1
:105A480045000000545A00100EFF0100A08027A056
:105A5800C02001C0420049E0C020860000E0C0200C
:105A6800C0205FE0C0388C00785A001009FF0100A0
:105A7800A08027A0420000FF00FF00FF01FF01EC0B
:105A880000C1000006005250D3F07542885500103E
:105A980006005250E182887F90550010060052504F
:105AA800ABB36053A055001006005250BBFF3CB684
:105AB800A855001006005250861C0302B05500106D
:105AC800060052505422A29DC455001005005250A1
